:020000040000fa
:080000000002040000000000f2
:020000040000fa
:100400006fd32100007f240000018800000000005d
:100410000c00070000f3210001002000110007007c
:10042000000020000000e000020032000000020096
:100430000000000094140200000000000040da00f8
:100440000000fe004440a900c00b20000000e000b6
:100450000300320000002000a00188004440a800f2
:100460000000060091018800800078000000eb0089
:1004700015003700e280400032a0b4009101ba00bc
:10048000e280400032a0b4009102ba00e280400055
:1004900032a0b4000002eb00472bde00f507b200eb
:1004a000602ce10004003a000059eb008301e900f0
:1004b000fdff3e00040037006128e100010032002a
:1004c0000082eb00040007001101ba000200e00006
:1004d000e8ff3a00000006003159ba008301e90044
:1004e0000c0032002159ba008301e90008003200f3
:1004f0000400e00003003a00e280400032a0b400b3
:10050000f5ff370011d9ba008301e900faff3a007c
:100510008100e800e180400032a0b4000000060045
:100520008412040000000000ee120400000000002d
:100530004a13040000000000fc1204000000000048
:10054000bc130400000000008e0b0400000000003b
:100550008001eb000200370061f079008301e800c0
:10056000828f5100fcff3a00000006000003780073
:10057000800178000002eb0001003700805978000c
:1005800084025100820f52000900320064c07800da
:100590000402e8000004e000f8ff3a00830078005d
:1005a0008058eb0005804100808f5000fcff3a002e
:1005b00006007800000006008001eb000200370012
:1005c000817178008301e800828f5100fcff3a00be
:1005d0000000060080007800010037000000e800fd
:1005e0001004e000fdff3a0001005000000006008a
:1005f000889fbe008a9fbe008c1f780047010700bd
:100600004e01330003866c006450e1002400320088
:100610006420e100270032006150e1002200320036
:100620006120e100210032008b854200eb07b10020
:100630000134b800003ab8000804420089844a0036
:10064000013ab8000030b8008880400009014a0033
:10065000040033000000400081804800020149008e
:100660008b05e900c909dd0083017000010032003b
:1006700013002000c814de004814dd004709de0026
:100680001200b200c808de00088470003b010700b9
:1006900001f0a1000cf0a70001f0a000300137002c
:1006a0006120e100320132000801be000200be00fc
:1006b000f7ff37006150e100fcff3a002c013700e2
:1006c00003f0a200889fbe008a9fbe008c1f7800a6
:1006d00012010700190133006450e1004f0032009d
:1006e0006420e1005200320003826c0007003b00ee
:1006f0000905d0000306d000820f54000c065d00ef
:1007000002003900020032008901780003067800f7
:100710008582550004003d000003fd008103fd00bb
:100720008502ea008b854200840f720002003b00c4
:1007300060001000e08018006011b8000005eb00b8
:100740007a28e1000a00390006007800c75ddd0064
:10075000f707b200878075002d0037008281710095
:100760000a017800610560008180d1000080d3001b
:100770008502e900f9ff3b00060440008784480039
:1007800002003b0060041400e0841c000988a30000
:10079000070032008a81710082817100610164006a
:1007a0008904d1000884d3008b05e80017003700c6
:1007b0000978a30013003a000b00e0001300340096
:1007c0008b05e9000804440089844c000a44740045
:1007d0000978a3000d003a000b00e0000700340088
:1007e0008b05e9000804440089844c0001003a00ac
:1007f0000b0020000978a300f7ff32000001eb0096
:1008000002003700828171000a017800db000700d6
:100810000cf0a70001f0a000d10037006420e10037
:1008200002003a00838f6c00d10033000801be0043
:100830000200be00ca003700889fbe008a9fbe002b
:100840008c1f7800b5000700bc00330003866c00e5
:100850006450e1002e0032006420e10033003200d9
:100860006150e1002f0032006120e10031003200d0
:1008700085855500eb07b000090020000804200022
:10088000050037000804440089844c000a00310048
:100890000603430087834b000001530081815b0006
:1008a000f8ff33000203be000800a0000804440063
:1008b00089844c00f6ff3900c639dd0083017300de
:1008c00001003200130020008904d1000884d30005
:1008d0000998a300050032000800a7000300a0004b
:1008e0008904d1000884d3008b05e8008904d10075
:1008f0000884d3000001eb000281d2009f000700b2
:1009000001f0a1000cf0a70001f0a0009400370056
:100910006420e100960032000801be000200be0023
:10092000f7ff37006120e100910032006000b8005d
:10093000f3ff37000000200001f82700f0ff370028
:100940000001be00b30007000470a70003f0a1007f
:1009500003f8a30013003a006509b100100032004b
:10096000090035006928e100020035000100280077
:100970000000050000004000818048008502e90079
:10098000fcff3a0000000600f88f42000500350029
:100990008100d1000080d3008502e800fcff3a000e
:1009a000000006008000eb00000005000001be0012
:1009b000980007000470a70003f0a1006509b100ca
:1009c000160032000d0035006828e10006003500f1
:1009d000f0ff2f00f1ff27000300e00013003b00b1
:1009e0000100280000000500000040008180480050
:1009f0008502e900fcff3a0008003700f88f42004a
:100a000002003c008000eb00000005008100d100e6
:100a10000080d3008502e800fcff3a000300e000fc
:100a200002003b0060001000e0801800000006009b
:100a3000889fbe008a9fbe00010578000100e0008b
:100a40000400350008003c000000e00020003200f7
:100a50000500370060001000e080180002003b0035
:100a600001f02c001a0037000004be006011b8002d
:100a70006b0920000982cf00020039000882cf00f4
:100a80000441b000694252000e00320008003b00f1
:100a900082817100610164008904d1000884d3005f
:100aa0008b05e8000442e800f9ff3a000500370032
:100ab0000804440089844c008b05e9000442e900e5
:100ac000fbff3a002d0007000af0a70001f0a0008c
:100ad0004f05be004f04be00000006006022b800b3
:100ae000060220000000d0008180d2000482d200e3
:100af0008582d2000000a0000202520083825a00c8
:100b0000030031000202420083824a000000a1007b
:100b10000603e900f3ff3a00000006000004be00ef
:100b20003c0007000003be000405be000200be003a
:100b300038000700844f7500000006000200be0068
:100b40006450e100050036006420e1000200360038
:100b50000968a30001003a000800be000160a0007f
:100b60004f0678004f05be004f04be00000006008f
:100b7000f0ff2f00f1ff2700f9ff37008100200070
:100b8000618055000b003d000b00200061fe2f002e
:100b90000100e1001d0034008281710061016400e8
:100ba0008904d1000884d3000000e800faff3a006d
:100bb000710020006100640003007000020060000a
:100bc0000900320061044400e0844c000988a5005b
:100bd000050032008b05e8006808e10002003a00d9
:100be0008904d1000884d300f20f20000258e100ec
:100bf00005003d00c75ddd00f907b2008980750082
:100c000008007800000006000bf827008b00780031
:100c100000000500c70ade00f107b200f50fb200c0
:100c200008003200e1cf4200020032000170a00053
:100c300024000500810f7000010032000408050047
:100c400044000500810f700002003a001400050006
:100c50008502e9000000400081c04800fcff3b0025
:080c60000170a0002400050052
:020000040000fa
:0200000401f009
:04000c00f8ff0000f9
:020000040000fa
:0200000401f009
:040010007fff00006e
:020000040000fa
:0200000401f009
:040014007fff00006a
:020000040000fa
:10000800822100008221000082210000822100005c
:10001800822100008221000082210000822100004c
:100028004812000082210000822100005c1d0000af
:10003800822100008221000082210000bc200000f3
:10004800822100008221000082210000ec1a0000b9
:10005800401b0000f21f00008221000082210000e6
:1000680082210000822100008221000082210000fc
:1000780082210000822100008221000082210000ec
:10008800822100008221000082210000be120000af
:1000980082210000822100008221000082210000cc
:1000a80082210000822100008221000082210000bc
:1000b80082210000822100008221000082210000ac
:1000c800822100008221000082210000822100009c
:1000d800822100008221000082210000822100008c
:1000e800822100008221000082210000822100007c
:1000f800822100008221000082210000822100006c
:10010800822100008221000082210000822100005b
:10011800822100008221000082210000822100004b
:10012800822100008221000082210000822100003b
:10013800822100008221000082210000822100002b
:10014800822100008221000082210000822100001b
:10015800822100008221000082210000822100000b
:1001680082210000822100008221000082210000fb
:1001780082210000822100008221000082210000eb
:1001880082210000822100008221000082210000db
:1001980082210000822100008221000082210000cb
:1001a80082210000822100008221000082210000bb
:1001b80082210000822100008221000082210000ab
:1001c800822100008221000082210000822100009b
:1001d800822100008221000082210000822100008b
:1001e800822100008221000082210000822100007b
:0801f8008221000082210000b9
:020000040000fa
:10020800822100008221000082210000822100005a
:10021800822100008221000082210000822100004a
:100228004812000082210000822100005c1d0000ad
:10023800822100008221000082210000bc200000f1
:10024800822100008221000082210000ec1a0000b7
:10025800401b0000f21f00008221000082210000e4
:1002680082210000822100008221000082210000fa
:1002780082210000822100008221000082210000ea
:10028800822100008221000082210000be120000ad
:1002980082210000822100008221000082210000ca
:1002a80082210000822100008221000082210000ba
:1002b80082210000822100008221000082210000aa
:1002c800822100008221000082210000822100009a
:1002d800822100008221000082210000822100008a
:1002e800822100008221000082210000822100007a
:1002f800822100008221000082210000822100006a
:100308008221000082210000822100008221000059
:100318008221000082210000822100008221000049
:100328008221000082210000822100008221000039
:100338008221000082210000822100008221000029
:100348008221000082210000822100008221000019
:100358008221000082210000822100008221000009
:1003680082210000822100008221000082210000f9
:1003780082210000822100008221000082210000e9
:1003880082210000822100008221000082210000d9
:1003980082210000822100008221000082210000c9
:1003a80082210000822100008221000082210000b9
:1003b80082210000822100008221000082210000a9
:1003c8008221000082210000822100008221000099
:1003d8008221000082210000822100008221000089
:1003e8008221000082210000822100008221000079
:0803f8008221000082210000b7
:020000040000fa
:100c6800546500006d7000003a0000004d6f0000f0
:100c7800645f00006c75000063720000753a000044
:100c880000410000757400006f6d00006174000081
:100c9800004d0000616e0000756100006c000000ee
:100ca800546500006e730000697500006e650000f1
:100cb800005500006c740000696d0000615f000061
:100cc800636f00006d000000630000004d450000e8
:100cd8004e49000055200000434f00004d450000dc
:100ce8004e5a0000492000000a0000004d6f000025
:100cf8006420000041750000746f00006d61000001
:100d0800740a0000004d00006f640000204d0000d0
:100d1800616e0000756100006c0a0000005400005c
:100d2800656d000070650000726100007475000058
:100d3800726100003a0000005473000031000000a6
:100d480054730000320000005473000033000000a8
:100d58005473000034000000547300003500000094
:100d68001111000022220000333300004444000027
:100d780055550000666600007777000088880000f7
:100d880099990000aaaa0000bbbb0000cccc0000c7
:100d9800dddd0000eeee0000cecd0000acab0000c3
:100da800020200000303000004040000050500001f
:100db8000606000007070000080800000a090000ee
:100dc8001010000010110000121200004944000029
:080dd8004c4500000000000082
:020000040000fa
:100de0000000fa00e43cec000080fa00000006007d
:100df0000000fa00889fbe008a1f78000005780076
:100e000081047800e38f5000010036003900200093
:100e10001d0b070080e780008a0f500002003a0097
:100e20000005eb00020037000a00e00002003a0073
:100e300088e78000010037000a047800b8089000b5
:100e4000818f540025003200030036000a00e000c4
:100e500003003a00040037000a00e00002003a00f4
:100e60001a002000010037000005eb00390c980043
:100e700064801400600498006a09b900e0c721008a
:100e800002004000d8009000808f50000e003a0011
:100e90008884e80009007800a20b0700b8089000d9
:100ea00040e78000808f50000100360041e7880055
:100eb000380990006a11b900e0c721000200400023
:100ec00089007800710b0700e10f550003003a001c
:100ed000b41e02000000000000000000ef0a07003e
:100ee0004f0578004f04be000080fa0000000600a5
:100ef0000000fa00889fbe008a1f780080047800f6
:100f0000e10a070080e78000890f500002003a00e4
:100f10008004eb00020037000900e00002003a0004
:100f200088e7800001003700090478000885e800a0
:100f30000a0078007b0b0700280890000000e00002
:100f4000020032006c004400760b07008a00780033
:100f500020c521004d0b0700d00a07000900e00062
:100f600003003a00b41e0200000000000000000070
:100f70004f0578004f04be000080fa000000060014
:100f80000000fa0000017800d000900020c5210088
:100f9000808f500007003a00a2089000c0c52100d1
:100fa000808f500003003200100020000100e0009c
:100fb000010032000000eb000080fa000000060093
:100fc0000000fa00889fbe00000478000000e000e6
:100fd0001f00320080e78000800f54001c003200a8
:100fe000a90a070008007800e5ff0700e10f50009c
:100ff00016003a008884e80009007800490b0700d1
:10100000b808900040e78000808f50000100360053
:1010100041e78800380990006a11b900e0c7210053
:101020000200400089007800180b070080e780006c
:10103000b808900030089000808f500003003900fd
:10104000b41e02000000000000000000930a070028
:101050004f04be000080fa00000006000000fa0005
:10106000889fbe008a1f780000047800c4ff070034
:101070000005eb00e10f50001d003a0021e7800061
:101080000100e00016003a0080e7800001057800ca
:10109000b808900030089000808f5000010039009f
:1010a0001a0020008884e800090078001d0b070062
:1010b000b808900040e78000808f500001003600a3
:1010c00041e78800380990006a11b900e0c72100a3
:1010d0000200400089007800ec0a07000400370095
:1010e000ec004400c0c52100e80a07000005eb0041
:1010f0000a0078004f0578004f04be000080fa0017
:10110000000006000000fa0042a0a800e63cef0044
:101110005a0a07000080fa00000006000000fa00ea
:10112000881f7800e41ce2002b003a00ec3cec0045
:10113000ec1ce20005003a0040e3800031e380004f
:1011400041e3880030e38800de3cec0040e38000af
:101150001000e00022003a002a00370098009000ba
:1011600060e78000808f500026003e000880e80085
:10117000ec0a0700280890000000e000020032009e
:101180006c004400e70a0700b808900040e78000c0
:10119000808f50000100360041e788008880e80019
:1011a000380990006a11b900e0c721000200400030
:1011b000b60a070040e380001000e0001100320092
:1011c00040e3800030009000300490000800e00010
:1011d000e2ff3a000b003700e23cec000900370068
:1011e00040e3800030009000300490000800e000f0
:1011f000040032009800900060e78000808f50006b
:10120000daff36004f0478000080fa000000060084
:101210000000fa00889fbe001b0a0700e43ced00b6
:1012200020e780000000e00033003a00ee1ce200fe
:101230003100320080047800150037006c00440053
:10124000b80a07000880e800b60a0700b80890004e
:1012500040e78000808f50000100360041e78800a1
:101260008880e800380990006a11b900e0c72100c1
:1012700002004000850a0700b808900080e780005f
:1012800030089000808f50000100390019002000c4
:101290005c1ce2000500320010e38000300090008a
:1012a000000478000000e000e4ff3a00e21ce200e5
:1012b00013003a000500370098ff0700e23ced00fc
:1012c000e21ce20006003200fbff3700e18f540011
:1012d0000300320000e78000e10f500006003a00f2
:1012e000e03cef00b41e020000000000000000001f
:1012f00018002000050037000004eb000300370051
:10130000e21ce200f6ff3200ebff3700e3090700c2
:10131000080078004f04be000080fa0000000600bc
:101320000000fa00889fbe00800478000000e00002
:1013300016003200aafe070068e780000884440017
:10134000f09cec00770a070080e780001800980006
:1013500060e78000800f54000500310081e78000c5
:1013600030e380008180e800560a0700040037005f
:1013700081e7800040e380008180e800510a070097
:10138000a3ff07000000e00003003a00b41e0200c3
:1013900000000000000000004f04be000080fa00c2
:1013a000000006000000fa00889fbe00800478005c
:1013b000010478008afe0700990078000884400044
:1013c00060e78000808f500003003600888f500057
:1013d0000600360002003700888f500005003e00ee
:1013e00060e78000800f540002003e000000eb0028
:1013f0000100370010002000880c78000000e00099
:1014000010003200f09cec00460a070080e78000e4
:101410001800980060e78000800f5400050031003c
:1014200081e7800030e380008180e800250a070022
:101430000400370081e7800040e380008180e800fd
:10144000200a070072ff07000000e00003003a00d6
:10145000b41e020000000000000000004f04be00a7
:101460000080fa00000006000000fa00881f7800e3
:101470008509070068e780008809070008007800f0
:101480004f0478000080fa00000006000000fa0017
:1014900070e780000080fa00000006000000fa00fb
:1014a000e41ce200150032001000200000e7880074
:1014b00019003700e83ced001000370040e78000dd
:1014c0006a00b900e2c721008000410011009000cd
:1014d000100190009200980064804000800f51003d
:1014e00002003a0012019000920098001100900052
:1014f0003000900080e788000700370040e7800058
:101500006a00b900e2c72100620078000000e00034
:10151000e8ff3200e9ff37000080fa000000060013
:101520000000fa00881f78000104780081e780003d
:10153000ec804000e3090700f09cec00f90907008b
:10154000e10f440005003a0081e780008180e80057
:1015500020c52100cd0907001000370060e780009a
:101560000000440081e780009000980061e780005f
:10157000810f50000500310081e7800030e38000da
:101580008180e800cf0907000400370081e7800070
:1015900040e380008180e800ca0907004f0478001a
:1015a0000080fa00000006000000fa00881f7800a2
:1015b00080007800100078000000e00002003a008f
:1015c00000047800020037003100900030049000e1
:1015d0006c004400d3090700e41ce2000e003a004e
:1015e0000880e800cf090700b808900040e78000b5
:1015f000808f50000100360041e788008880e800b5
:10160000380990006a11b900e0c7210002004000cb
:101610009e09070003003700ec004400c0c521000c
:101620009a0907003808900081e78000b10890000f
:101630000001eb00810f5000010039001200200072
:10164000020078004f0478000080fa0000000600d5
:101650000000fa00f1e680000108780061e78000f0
:10166000110098000080fa00000006000000fa0057
:10167000889fbe008a1f780000047800010578006a
:10168000010907001a0178008004eb00e10f410016
:1016900014003200f0e68000980f100004003200c1
:1016a00061e7800018009000810f50000c003600a8
:1016b0009800900001007800ec1cb500800f5100ec
:1016c0000700360001007800ec1cb500000d510049
:1016d00008007800deff07008004eb0001003700ff
:1016e00019002000ed080700090078004f05780078
:1016f0004f04be000080fa00000006000000fa005f
:101700001000200000e788000080fa0000000600ba
:101710000000fa000080fa00000006000000fa0055
:10172000f0e38000e10f5000fdff3600b41e020020
:101730000000000000000000f9ff37000000fa0080
:10174000889fbe008a1f7800800478000204780019
:101750007a0040004200200084fb07000040eb00bc
:10176000d05c9800e30f54000300360038002000de
:101770001a0020000100370064051400b80c98001e
:101780000980e8003c0907006c84440008007800e8
:1017900039090700c90498000a0c7800990c9800d0
:1017a0004f0578004f04be000080fa0000000600dc
:1017b0000000fa00889fbe00e8c7210069ca210026
:1017c00008007800230907006a044400888f540049
:1017d000fbff3a0040c721001e090700a0c62100f8
:1017e0001c090700c0c521001a09070020c52100f7
:1017f0001809070040c7210040e38800a0c6210067
:1018000030e388004f04be000080fa0000000600ac
:101810000000fa00889fbe008a1f7800000578004b
:1018200001047800000220006d0a0700800478009f
:101830000000e000100032000800e00003003a0061
:101840000a004500660a070000047800c80c9800ea
:101850000800e00004003a0009007800790a070057
:1018600088047800040037000a014500510a20006e
:101870000800780050fb0700090078004f05780049
:101880004f04be000080fa00000006000600fa00c7
:10189000889fbe008a9fbe008c9fbe00000f78000c
:1018a0000106780002057800130798008406780086
:1018b00025079800860078008705780002007800e8
:1018c000d3ff0700800478000080eb000900e000ef
:1018d00041003200490c90000a004500000044001d
:1018e0000080e900f00c98000a0278008b01780073
:1018f0000d0178008c007800090078008fff070048
:101900001e0190009e00780008007800150807006e
:10191000800c78005c080700ee3cec0070e780006b
:10192000e10f500003003a0089e78800a0ff07009c
:1019300007003700e61ce20005003a0080e780005f
:1019400030089000808f56000100390089e7880038
:10195000b908900050e78000808f500001003600e9
:1019600051e78800dc3cec00b908900040e78000bb
:10197000808f50000100360041e788008980e80030
:10198000390990006a11b900e0c721000200400047
:10199000be080700410807002e0090000000e0008c
:1019a0000100320009087800e61ce200090032005c
:1019b00080e78000300890008d0f50000500310056
:1019c000b41e020000000000000000001000200013
:1019d00001003700100020004f06be004f05be007a
:1019e0004f04be000080fa00000006000000fa006c
:1019f0008003eb000003eb0086027800060278000b
:101a00008601780092062000a16e2800e0b8200030
:101a10009eff0700e10f500004003a0042a0a8001a
:101a200030e78800ec3cef00e40707000080fa0094
:101a3000000006000000fa00889fbe008a9fbe00da
:101a400080047800010578000000e00024003200e6
:101a500060022000e2090700000478000000e000b6
:101a60001f0032000ac8b900800578000000e800b5
:101a7000db09070000017800000c78000000e0009e
:101a8000130032000b004000100498000000eb002f
:101a9000600c9800220498000900e90000d0b90009
:101aa0000000410030049800790c98000a14980056
:101ab0000080eb0010149800201498006800440087
:101ac0006408070072004400620807000500370040
:101ad00008007800db0907000004eb000100370074
:101ae0000004eb00080078004f05be004f04be0064
:101af0000080fa00000006000000fa00889fbe0087
:101b000000047800e0070700e80890008004eb007c
:101b100078089000808f500001003a0019002000e2
:101b2000de070700090078004f04be000080fa00bd
:101b3000000006000000fa00881f7800000478000a
:101b4000d1070700680c9000d40707000800780050
:101b50004f0478000080fa00000006000000fa0040
:101b6000600890000080fa00000006000000fa0003
:101b7000881f78000004780010007800b109070081
:101b800008007800af0907004f0478000080fa00d1
:101b9000000006000000fa00881f780000047800aa
:101ba00002007800081190000200e00019003200e5
:101bb0000000e0000c003a002800900064fa0700e2
:101bc0002800900088109000010040002004980038
:101bd00098009000810f50000e0039001800780026
:101be000200498000b0037003800900058fa0700d6
:101bf00038009000881090000100500030049800d8
:101c0000980f5000030031001800900001005000b0
:101c100030049800680890000000e800600c98000c
:101c20004f0478000080fa00000006000000fa006f
:101c3000889fbe00000478000102780082047800ca
:101c400003017800e0089000700890008001eb002c
:101c5000808f500016003100840078000800780062
:101c6000ccff070028109000e10f40000b003a0065
:101c7000180890000000e0000c00320072004400e0
:101c800049fe07000000e0000800320010002000bc
:101c9000800c780080017800050037000000e80023
:101ca00020149800130020000100370013002000ca
:101cb000030078004f04be000080fa000000060018
:101cc0000000fa0000017800810178001000e000b7
:101cd0000e003200300090008210900001004000a1
:101ce0003001980092009000810f500002003900ee
:101cf00012007800300198006600410090007800e2
:101d0000021190000300780011fa07000080fa0029
:101d1000000006000000fa00889fbe000004780062
:101d200082047800600890000000e0001700320094
:101d300008007800e2ff0700680890000000e90052
:101d4000600c980018109000e10f40000a003a0063
:101d5000480090000000e0000b00320068004400e2
:101d600011fe07000000e000070032001000200014
:101d7000800c7800050037000000e800101498007f
:101d80001000200001003700100020004f04be00aa
:101d90000080fa00000006000000fa00881f7800aa
:101da0000004780038070700281090000000e000c9
:101db00029003c000d003700180890000000e000ea
:101dc0000a00320072004400f7fd07000000e00046
:101dd0000100320049fe0700281090000000e900d1
:101de000201498004240a900f3ff3c000080eb0063
:101df00020149800290707002307070018109000f7
:101e00000000e00018003c000d0037004800900082
:101e10000000e0000a00320068004400e2fd070014
:101e20000000e0000100320034fe070018109000ae
:101e30000000e900101498004240a900f3ff3c00a4
:101e40000080eb0010149800140707004f0478007e
:101e50000080fa0000000600180890000000e00072
:101e6000e2ff3200d7ff3700480090000000e0009a
:101e7000f3ff3200e8ff37000600fa00889fbe003b
:101e80008a9fbe008c1f780080047800810578004e
:101e900022079800030678000005eb00fa06070009
:101ea000690890000000e0001f0032003904900033
:101eb0008b0078000900780081ff07000c00e0002b
:101ec0000b003a00690890000000e900e00c98005f
:101ed000490090000000e0001000320068804400db
:101ee000b1fd0700e10f50000c003a000800370078
:101ef000b8049800190890000000e00007003200c4
:101f000072804400a8fd07000000e00003003200da
:101f1000b41e02000000000000000000df06070001
:101f200010002000370037002e0490000800e00069
:101f300003003a00d9060700080078003100370096
:101f40000a00e00003003a000e007800c0fd070020
:101f50001a002000d1060700a1fb0700ca060700ef
:101f600019109000e10f400002003a000000eb0061
:101f70009014980029109000e10f400002003a00f0
:101f80000000eb00a0149800c4060700e40047001e
:101f90000e007800b5fd07000000e00015003a00d3
:101fa000b9060700690c9000bc0607000800e000b5
:101fb0000c003a00ae0090007280440058fd07000b
:101fc0000900780074ff070091fc07000000e000a2
:101fd000b2ff3a00b41e0200000000000000000042
:101fe000aeff3700090078006bff070088fc070090
:101ff000aaff37000900780067ff070084fc07008c
:102000000000eb004f0678004f05be004f04be00f5
:102010000080fa00000006000600fa00889fbe005b
:102020008a9fbe008c1f780080047800010678002b
:1020300022079800830578000005eb009206070050
:10204000e908900079089000808f5000110031005d
:102050000b0178008c00780009007800cdfe0700a5
:10206000190890000000e000070032007280440070
:102070004dfd0700e10f500003003a00b41e0200be
:10208000000000000000000084060700100020008f
:10209000360037002e0490000800e00003003a00ec
:1020a0007e06070008007800300037000a00e000d4
:1020b00003003a000e00780065fd07001a002000ba
:1020c0007606070046fb07006f0607001910900010
:1020d000e10f400002003a000000eb00901498006d
:1020e00029109000e10f400002003a000000eb00d0
:1020f000a014980069060700e40047000e0078006d
:102100005afd07000000e00014003a0009007800c2
:1021100079fe07000000e0000c003200ae009000e5
:1021200068804400fefc0700090078001aff0700e1
:1021300037fc07000000e000c0ff3a00b41e0200b8
:102140000000000000000000bcff3700090078001c
:1021500011ff07002efc0700b8ff370009007800c8
:102160000dff07002afc07000000eb004f06780077
:102170004f05be004f04be000080fa0000000600bc
:102180000000fa00e00890000100ea000100700081
:102190004f00de00610010000080fa000000060021
:1021a0000000fa00e00890000001eb0070089000c9
:1021b000808f500001003a001200200002007800d9
:1021c0000080fa00000006000000fa00889fbe00b0
:1021d0008a1f7800000478000105780082047800e6
:1021e00042a0a80044fe07000000e0000b003200ff
:1021f0000900e00006003200e80044000900780011
:102200006203070042a0a900c0ff2f001a00370098
:1022100042a0a9000000eb001700370042a0a9006f
:102220000000000042a0a800e80890007808900094
:102230000001eb00808f50000d0031000001eb0029
:102240008a0078000800780052fe07001808900005
:102250000000e0000500320072004400480407005e
:10226000b2ff2f000000e00001003a001200200041
:1022700042a0a900020078004f0578004f04be007c
:102280000080fa00000006000000fa00881f7800b5
:10229000000478008101780042a0a8006008900046
:1022a0000000e0000b003a000200e00006003200ef
:1022b000f2004400020078003403070042a0a900a5
:1022c000c0ff2f002700370042a0a9000000eb004c
:1022d0002400370042a0a9000000000042a0a8008e
:1022e000680890000000e00002003a0080007800da
:1022f0001a0037003800900088109000010040005c
:102300003004980098009000810f500002003900be
:102310001800780030049800680890000000e90078
:10232000600c98006600440090007800081190004e
:102330000300780086f80700480090000000e000e5
:1023400005003200680044000d040700b1ff2f00b3
:102350000000e00001003a001100200042a0a900a6
:10236000010078004f0478000080fa0000000600a9
:102370000000fa00889fbe00000478008101780008
:1023800082047800e008900070089000808f500070
:102390000f0031000001eb00830078000800780096
:1023a000fcfd07000900e00009003a001808900051
:1023b0000000e0000800320072004400f003070053
:1023c000110020000000e00004003a000200370085
:1023d00089007800010037008000eb0001007800e0
:1023e0004f04be000080fa00000006000000fa0062
:1023f000889fbe0000047800810178008204780084
:10240000600890000000e0001e00320038009000dc
:10241000881090000100400030049800980090005f
:10242000810f500002003900180078003004980035
:10243000680890000000e900600c98006600440005
:1024400090007800081190000300780040f8070021
:102450001900e0000a003a00480090000000e00087
:102460000700320068004400c50307000000e000d8
:102470000300320010002000800c780001003700bb
:10248000100020004f04be000080fa00000006008b
:102490003600f800809fbe00829fbe00849fbe0071
:1024a000869fbe000000fa0040e98000e10f500066
:1024b0000b003a00283def0070e88000e7fa0700c3
:1024c00060e88000e5fa070050e88000e3fa0700c2
:1024d00040e88000e1fa07008400a900030037000b
:1024e0001000200040e988008400a9000080fa0064
:1024f0004f03be004f02be004f01be004f00be00a2
:102500003600f900004006000000fa0040e98000b3
:10251000e10f50000e003a00cbc2bf004300de00c6
:10252000614160000281ea008381ea00614161004b
:102530004311dd00cbc2bf000034a1000240700097
:10254000cbe2b700401f200075fb070008003700f2
:1025500070e8800066fa070060e8800064fa07000f
:1025600050e8800062fa070040e8800060fa070047
:10257000400620006afb0700e4ff3700801f780058
:10258000829fbe000000fa0040e98000e10f500089
:1025900002003a00cb62a8000b003700cbc2bf009c
:1025a0004300de00614160000281ea008381ea00ad
:1025b000614161004311dd00cbc2bf000034a100c6
:1025c00002407000cbe2b7008460a9000080fa00ee
:1025d0004f01be004f007800004006000000fa00e6
:1025e000b504070090e88800a1e88800803e20003c
:1025f0004bfb0700faff37000000fa0030e98000cb
:10260000e10f500015003a00ca22a8000200200085
:10261000a347240090e88000a1e88000f4f70700b9
:1026200002002400c369240025f8070002002000ee
:10263000832c240080f807000200200003122400ed
:10264000ebf7070002002c00834a24001df8070066
:10265000bbf80700d00e88000b003700ca22a90083
:1026600031e88000e18f500003003c00204e200044
:10267000d00e880004003700401f20000088b900f9
:102680002035b000d00e8800803e200024fb0700db
:10269000daff37000a00fa00881f78000e0478007d
:1026a000100020007001070040632800de010700d1
:1026b000f100200010002000ee01070090e88000eb
:1026c000a1e88000b9f807000001be008e00780084
:1026d000020078000e0507000e007800d201070006
:1026e0002000200060010700a0632800ce01070041
:1026f000d100200020002000de010700261de2009e
:1027000003003a0050642800c701070002003700a8
:10271000d0642800c40107003000200052010700e7
:1027200040652800c0010700f100200030002000b3
:10273000d001070030e880008e007800f404070024
:1027400008007800b801070040002000460107009b
:10275000d0652800b4010700f100200040002000ef
:10276000c401070080662800af010700803e2000fa
:10277000ebfa0700caff37000c00fa00889fbe0082
:102780008a1f7800a96628000e0478000e05e8006c
:102790000001eb00890078000000eb00e303070074
:1027a0000081eb00880078000000eb006b0307005d
:1027b0000000e000f6ff32009e40780010c3b30036
:1027c00080cf500007003a00261de20003003a00c7
:1027d0001000200030e9880010003700263def008f
:1027e0000e00370020c3b30080cf50000b003a002a
:1027f000261de20005003a000001eb00a167280059
:102800000000eb00c9030700040037000001eb00e3
:10281000716828000000eb00c403070030c3b30058
:102820009e4f1000daff3a000001eb0031692800ea
:102830000000eb00bd03070090e88000a1e88000e5
:102840005af807000001be008a00780002007800f4
:10285000af0407000001eb008a0078000000eb00e5
:10286000b2030700caff37000000fa009002200000
:10287000303a8800764040004467b60000ceb3008e
:102880004467b60012002000a10920008007200044
:1028900033742000804978008149780082497800ab
:1028a0007105200060042000237420008049780016
:1028b000814978008249780043c7bf000047b200d1
:1028c000f04f5000fcff3a0042c7bf000058a30081
:1028d000fdff32000080fa00000006000000fa0050
:1028e0000001eb0022088800a5c0bf00f1c8b300ba
:1028f000014060000044a000a5e0b7009460a8007b
:102900000421a90004c1a90000c3b3000461b700f9
:1029100002088800409923001008880005e1a800fb
:102920000080fa00000006000000fa00881f78000e
:1029300040a7a9002ca3ef00c0050700caff0700ad
:102940000004eb0048168800c842a800c862a8002e
:10295000c822a800c8e2a800cb42a90058168800e7
:102960008400a9009400a8008200a8004206070085
:102970007705070094050700f2030700ea00070047
:10298000820c20000058220001002000960207005f
:1029900041002000a000200026fc07008003eb007f
:1029a0000803780005d12100540020008801780038
:1029b00092062000016a280040282100b3fb07008e
:1029c0008003eb0008037800e5d0210024002000fc
:1029d0008801780092062000416a2800e02e21003c
:1029e000aafb07008003eb0008037800c5d0210094
:1029f000240020008801780092062000816a2800c7
:102a0000a0342100a1fb07008003eb00080378003d
:102a1000a5d0210044002000880178009206200003
:102a2000c16a2800c02f210098fb07008003eb003b
:102a30000803780085d02100340020008801780048
:102a400092062000016b2800c03b21008ffb07008d
:102a5000e6fb0700080078004f0478000080fa00c9
:102a6000000006000000fa00cd0107000080fa0017
:102a7000000006000000fa000000e000270034001b
:102a80008000eb00000000000000000000000000db
:102a90000000000000000000000000000000000036
:102aa0000000000000000000000000000000000026
:102ab0000000000000000000000000000000000016
:102ac0000000000000000000000000000000000006
:102ad00000000000000000000000000000000000f6
:102ae00000000000000000000000000000000000e6
:102af00000000000000000000000000000000000d6
:102b000000000000000000000000000000000000c5
:102b10008100e800810f5000daff3a000080fa00df
:102b2000000006000000fa00889fbe0080047800c4
:102b30000000e000060034000004eb00803e2000ae
:102b4000ccff07000804e800888f5400fbff3a0020
:102b50004f04be000080fa00000006000000fa00ea
:102b60004c00dd00ca22b7000080fa000000060019
:102b70000000fa004c00dd00f1ff200001007000b1
:102b8000ca22b6000080fa00000006000000fa0029
:102b90000000eb00f1ff0700ca82a80080022000bd
:102ba000b4ff0700ca82a9000080eb00f0ff070015
:102bb00010002000e9ff0700ca82a80020002000c2
:102bc000d8ff0700ca82a900e0ff2f00e8ff070036
:102bd0000080fa00000006000000fa00889fbe0096
:102be0008004fb0044ccde0008007800dbff070017
:102bf000cac2a800100020009eff0700ca82a800d9
:102c0000800220009bff0700ca82a900080078000c
:102c10000080ea008180ea00d5ff07006f8464002d
:102c200008007800cdff07001000200091ff07008a
:102c3000ca82a800800220008eff0700ca82a90075
:102c4000cac2a900080078000080ea008180ea007a
:102c5000c7ff07008002200086ff07004f04be0068
:102c60000080fa00000006000000fa00889fbe0005
:102c7000c1cfb30009fc2f00e20f50001100320059
:102c800003003c00e10f500009003a000b00370040
:102c900091cfb30049f92f00e30f50000900320033
:102ca000d1cfb30049fd2f00e40f500005003200e2
:102cb0008040eb008004eb000200370081cfb300be
:102cc00009f82f000104fb0008007800a3ff0700ab
:102cd000ca82a8004001200066ff0700ca82a9003e
:102ce000080078000080ea008180ea00a0ff070069
:102cf0006f8464000800780098ff0700ca82a8006b
:102d0000400120005bff0700ca82a900080078008c
:102d10000080ea008180ea0095ff07004f04be00b2
:102d20000080fa00000006000000fa008002200087
:102d30007cff07002000200088ff0700ca82a8004f
:102d4000800220004bff0700ca82a900d0ff2f009d
:102d500087ff07002000200080ff0700ca82a8002c
:102d60008002200043ff0700ca82a900d0ff2f0085
:102d70007fff07008000200078ff0700ca82a800bc
:102d8000800220003bff0700ca82a90070ff2f00cd
:102d900077ff07000000eb0070ff0700ca82a80061
:102da0008002200033ff0700ca82a9000080eb00e8
:102db0006fff0700e000200068ff0700ca82a8003c
:102dc000800220002bff0700ca82a90010ff2f00fd
:102dd00067ff07006dff07000000eb005fff0700c3
:102de000ca82a8008002200022ff0700ca82a90030
:102df0000080eb005eff07006000200057ff070027
:102e0000ca82a800800220001aff0700ca82a90017
:102e100090ff2f0056ff07002000200041ff070011
:102e20000080fa00000006000000fa00889fbe0043
:102e30008a9fbe0080057800000578008004eb00c2
:102e40000300370068c07d0063ff07008904e800c5
:102e5000090478000a007800def50700890f5000a9
:102e6000f8ff3e004f05be004f04be000080fa0090
:102e7000000006000000fa00889fbe0002ccb300ec
:102e8000e20f50000d00320003003c00e10f500043
:102e900007003a000800370042c9b300e30f5000b2
:102ea0000600320042cdb300e40f500003003200b0
:102eb0000041eb000100370002c8b30001444100ab
:102ec0000844e9000804fb00c4c4de0009007800df
:102ed00022ff0700ca82a80040002000e5fe07008c
:102ee000ca82a900090078000080ea008180ea0017
:102ef0001fff07006f0464000800780017ff070039
:102f0000ca82a80040002000dafe0700ca82a90099
:102f1000080078000080ea008180ea0014ff0700c2
:102f20004f04be000080fa00000006000000fa0016
:102f3000881f7800880020000000e00004003200b4
:102f40000004eb00e10f500001003a00a80020004f
:102f50000800780001ff0700ca82a8008002200054
:102f6000c4fe0700ca82a900080078000080ea00b9
:102f70008180ea00fefe070080022000bdfe0700ff
:102f80004f0478000080fa00000006000000fa00fc
:102f9000889fbe000001780081047800d0e880009e
:102fa000000441001e9dec005e030700f0e8800075
:102fb00018009800d0e88000800f54000500310010
:102fc000f1e880008180e80080e580003d03070093
:102fd00004003700f1e880008180e80090e580007f
:102fe000380307000900e00004003200f1e8800027
:102ff000ec80400009007800320307004f04be0057
:103000000080fa00000006000000fa00881f780027
:10301000a61ce2001a00320042a0a80030e58000a1
:103020000000e00002003a000004780002003700cf
:1030300060e58000300490006c0044003903070014
:1030400042a0a9000880e80036030700b8089000f5
:10305000e0e88000808f500001003600e1e8880041
:103060008880e800380990006a11b90080cc2100fe
:103070000200400005030700a61ce200e6ff3a003c
:103080004f0478000080fa00000006000000fa00fb
:10309000881f7800f4f80700c1e8800001005000a4
:1030a000b0e888002e003700d1e880008100e800f9
:1030b000d1e888000000e900b0e888000100e000e5
:1030c00004003a0090e5800082e5800092e58800e7
:1030d00080e5880090e580001000e00028003a00bc
:1030e0001f00370098009000d0e88000808f5000cb
:1030f0001b003e0042a0a8000880e800090307006a
:10310000280890000000e000020032006c0044003b
:103110000403070042a0a900b8089000e0e880007e
:10312000808f500001003600e1e888008880e800c8
:10313000380990006a11b90080cc210002004000db
:10314000d202070090e580001000e0000400320089
:1031500030009000300490000800e000e1ff3a00e9
:10316000b0e880000000e000cfff3a00d0e8800027
:10317000c0e888004f0478000080fa0000000600d4
:1031800030009000300490000800e000f4ff3200ae
:1031900018009000808f5000f1ff3900d5ff3700f4
:1031a0000000fa0098ff0700b8ff0700e4e880007d
:1031b0006a20b90082cc2100800041001100e000ab
:1031c00019003200090037000201e8006a005000cf
:1031d000840f51001c0032008301e900e3e88800fd
:1031e000800078001000e000f7ff3200110090002e
:1031f000100190009200980064804000800f510000
:1032000002003a0012019000920098001100900014
:1032100030009000f0e8880010017800c0089000ad
:1032200002000100080037000400e0000600320040
:103230006a20b900e2cb210000004100840178003f
:103240000001eb00e4ff37000080fa0000000600f8
:103250000000fa00889fbe0088cc2100c9cd210063
:10326000080078007b0207006a044400888f54003d
:10327000fbff3a00e0cb21007602070040cb2100a3
:103280007402070060ca210072020700e0cb21002f
:1032900090e5880040cb210080e588004f04be0007
:1032a0000080fa00000006000000fa00889fbe00bf
:1032b0008a9fbe008c1f780080057800010478008a
:1032c00002057800c0012000c503070080047800d3
:1032d0000080eb000900e000240032001e1de20027
:1032e00002003a00f9e88800d9ff0700e10f540016
:1032f00003003600180020003c00200001003700c9
:10330000640614000000eb00d00c9800b80c980084
:10331000ca0c9800090578000b1d78000a00780097
:10332000550207006c844400080078005202070030
:10333000c9049800990c98000c0c7800b90890000a
:10334000e0e88000808f500001003600e1e888004e
:10335000390990006a11b90080cc210002004000b8
:103360008a00780049020700100020004f0678000c
:103370004f05be004f04be000080fa0000000600aa
:103380000000fa00889fbe00900078000100e00075
:1033900002003a00810478000200370030009000fb
:1033a000b00490006c844400080078005d020700bf
:1033b0008800780060ca210034020700b908900034
:1033c000f0e88000300890000001eb00808f500092
:1033d0000100390012002000020078004f04be00f6
:1033e0000080fa00000006000000fa00881f780044
:1033f0008a9fbe000005be0002047800c922a80012
:10340000cb02a80030002000403688009000200049
:1034100020358800110020000200780085f907009f
:1034200020e98800110020000800780081f90700d9
:1034300010e988002062a9002002a90090cfb30003
:103440002062b60020a2a90020c2a90020e2a900a3
:10345000c0cfb3002162b6002182a90021a2a90039
:1034600021e2a800e00f5500e08f5d000300350069
:103470000a00be006ef50700090037006100650014
:10348000010020008b01d1000a81d30002007000ee
:103490008380700066f507000001be0089f4070014
:1034a000020020000318240051f407000001be00b0
:1034b0000068290081c12400dff407000200200019
:1034c00003f023007ef407001df50700401188007b
:1034d000f0c3b3002262b6002342a80023c2a900b1
:1034e00023a2a90023e2a90042a0a8008560a900a8
:1034f0008580a900a9c0bf00f1c8b30001406000e9
:103500000044a000a9e0b700aac0bf0081cfb3006b
:10351000014060000004a000aae0b7009580a80068
:103520009560a80022c2bf000008a300040032007a
:103530003011800022c2bf000008a300fcff3a0047
:103540001000200000e988000000eb004f05be00dd
:103550004f0478000080fa00000006000000fa0026
:1035600020e980008001eb0043fa0700800078002a
:103570000000ea00010070004f00de000080fa0049
:10358000000006000200fa00014f780010e98000f8
:103590008001eb008e0078009ffa07008000eb00ae
:1035a000e10f500006003a0011002000201de2004b
:1035b00003003200203def008580a80011002000ac
:1035c000010078000080fa00000006000000fa0008
:1035d0000080fa00000006003600f800809fbe0060
:1035e000829fbe00849fbe00869fbe00881f780019
:1035f0003400f80000002000a00188000400fa0058
:103600000000eb00100798008560a90022c2bf00ef
:103610000008a3000b0032000e0478003011800077
:10362000004f780020e980008001eb000e81e80067
:10363000880078007df9070022c2bf000008a300bf
:10364000f6ff3a001e0090000000e0000300320088
:10365000b41e020000000000000000000080fa001c
:103660003400f9004f0478004f03be004f02be0043
:103670004f01be004f00be003600f90000400600ba
:103680003600f800809fbe00829fbe00849fbe006f
:10369000869fbe003400f80000002000a0018800d2
:1036a0000400fa000000eb00100798008580a900d4
:1036b00023c2bf000018a3000e003a0010e98000ea
:1036c0000e81e8008e00780092f90700e10f5000ab
:1036d00006003a001e00fb002011880023c2bf0034
:1036e0000018a30003003a00f4ff37001000200088
:1036f00000e988001e0090000000e0000300320096
:10370000b41e020000000000000000000080fa006b
:103710003400f9004f03be004f02be004f01be004f
:103720004f00be003600f900004006000000fa001d
:10373000889fbe00800478000104780091407800e2
:103740000104e000060032000001eb0009007800ef
:103750008cff0700d84078000104e000faff3a002f
:103760004f04be000080fa00000006000000fa00ce
:10377000ca42a900c842a9000080fa000000060061
:103780000000fa00c842a8000080fa00000006000d
:103790000000fa00c842a900614060004200dd005c
:1037a000a12c2000914078000124a10080c070006d
:1037b00001007800cae2b7000080fa0000000600ad
:1037c0000000fa00cac2bf004200de0061006000d3
:1037d0000080fa00000006000000fa00e8ff070081
:1037e000e2ff070060222000a2fc0700e4ff0700c0
:1037f000600420009ffc0700401f20009dfc070084
:10380000dfff07000080fa00000006000000fa0059
:10381000889fbe00000478008004eb00d3ff0700ff
:103820002000200093fc070061006400d8ff07001f
:103830000884d100c00320008efc0700d0ff0700e1
:10384000200020008bfc07008904e800e88f54006a
:10385000f2ff3a004f04be000080fa0000000600ac
:103860000000fa00889fbe000004eb0089002000e1
:10387000beff0700200020007efc0700c0ff0700fd
:10388000800020007bfc07000884d100ccff0700eb
:103890004700dd00000474008007200075fc07006d
:1038a0008904e900f2ff3a00080078004f04be00e6
:1038b0000080fa00000006000000fa00889fbe00a9
:1038c000c5ff0700c00c2000d0ff07004004200007
:1038d000ceff0700e2ff07000000e000fdff32001e
:1038e000bdff0700c00c2000c8ff0700e00b200050
:1038f000c6ff0700daff070080047800d8ff070042
:1039000000047800d6ff0700d5ff0700d4ff0700aa
:10391000d3ff0700d2ff0700d1ff07004840dd00ba
:1039200000804400cf80de0041f407000200200048
:1039300003d823002ef307004f04be000080fa00d6
:10394000000006000000fa002ca3a80068c0a80030
:10395000ca42a8008aff0700c842a8000080fa00f7
:10396000000006000000fa00010878008000eb006b
:10397000110098002100980032009800e8004000f3
:10398000406b2800a26e2800b0187800800f51000c
:10399000fdff3a00200280008008780034c0bf009c
:1039a0000080fb00900098000000eb00a000980051
:1039b000668040000080fa00000006000000fa0067
:1039c0000000eb00200888000008880080382100f3
:1039d00010088800a5c0bf00f1c8b3000140600016
:1039e0000044a000a5e0b7008460a9009460a8008e
:1039f0000481a80004a1a90005e1a80080e78000d7
:103a0000900778004f00780070e988003400f900d2
:103a10004400f9004000f9003e00f9003c00f900c4
:103a20003a00f9003800f9002c00f9002a00f900ea
:103a30002800f9002600f9002400f9002200f9000e
:103a40003200f9003600f9004f0778004f06be003b
:103a50004f05be004f04be004f03be004f02be0024
:103a60004f01be004f00be004200f90000000600fa
:103a7000100020000080fa00000006000000fa009c
:103a80000080fa00000006000000fa0042a0a80032
:103a90002e3dec000080fa00000006000000fa0055
:103aa0002e1ded0070e9880001003a0042a0a90037
:103ab0000080fa00000006003600f800809fbe007b
:103ac000829fbe00849fbe00869fbe003400f80027
:103ad00000002000a00188000000fa008460a90016
:103ae0008ef50700b41e0200000000000000000078
:103af0000080fa003400f9004f03be004f02be0000
:103b00004f01be004f00be003600f9000040060025
:103b1000881f7800801f78000001eb000200e6009b
:103b20000000ea000002eb00530020000004eb005c
:103b30000e0008001900000000f0a70061027200ea
:103b40006f03620003b0e600630242004419dd0027
:103b5000050f20000503620002b0e6000403b00078
:103b60004411dd00c42add000503620002b0e60056
:103b70000430b00007002300c42add000503620002
:103b80004c33de0003b0e600070242004100dd00d6
:103b90004f21de004144dd00020474004122dd00bb
:103ba00000f0a700610272004f0078008002eb0075
:103bb0008001eb0003c0e7000500370003a0e70029
:103bc0000300370002032000825878001d003700f0
:103bd0000003eb00d30220000600e60083587800c3
:103be0006f0164000610e700030037000203b00015
:103bf00082587800150020000003eb000300080045
:103c00000f00000002002f0082016200cc19de00cc
:103c10000618e70004003700030178000203b00033
:103c200082587800150020006128e10004003a0065
:103c30000698e7000200370002032000825878004f
:103c40004422dd008001eb00834878004f047800b7
:103c5000000006000000fa00e40040001100980097
:103c60008088eb0031009800410098000008eb00cc
:103c70000080fa00000006000000fa008000eb005f
:103c8000410098000080fa00000006000000fa00e1
:103c90009001900013019000920098001001900094
:103ca000a200980013019000210198009101980052
:103cb00011009800c00098001008e8000080fa0089
:103cc000000006000000fa00000278009101780070
:103cd000e18f410002003a004001900008003700e7
:103ce0006401400012009000908f510004003900e0
:103cf0001201900012009000908f5100fcff3100e3
:103d0000120090009000980021009800a2009800f6
:103d100011019800c4009800140ae8000080fa001d
:103d2000000006000000fa008000780010009000fb
:103d30002101900022009800a101900090019800bc
:103d40004101900012009000810f500001003a00e4
:103d5000130198000000eb00c00098001209e90070
:103d60000080fa00000006004200f800801f780082
:103d70000002200010028800811f7800829fbe0090
:103d8000849fbe00869fbe00889fbe008a9fbe00a3
:103d90008c9fbe008e1f78003600f8003200f800bd
:103da0002200f8002400f8002600f8002800f8009f
:103db0002a00f8002c00f8003800f8003a00f8005b
:103dc0003c00f8003e00f8004000f8004400f80015
:103dd0003400f80070e98000801f780080e78000e0
:103de0000f0878004e0a02000000000080e7800003
:103df000900778004f00780070e988003400f900df
:103e00004400f9004000f9003e00f9003c00f900d0
:103e10003a00f9003800f9002c00f9002a00f900f6
:103e20002800f9002600f9002400f9002200f9001a
:103e30003200f9003600f9004f0778004f06be0047
:103e40004f05be004f04be004f03be004f02be0030
:103e50004f01be004f00be004200f9000000060006
:020000040000fa
:103e6000261d000004000000020000000100010007
:103e700000000000081d00000e000000000000000f
:103e8000dc1c000016000000020000000000000022
:103e90000000000000000000000000000000000022
:103ea000000000000000000000000000521c0000a4
:103eb00054000000000000002e1d00000200000061
:103ec00002000000ef000000500800000214000093
:103ed00000000000301d0000020000000000000093
:103ee000161d00000a000000020000000000000093
:103ef000000000000000000000000000a61c000000
:103f00003600000000000000321d0000020000002a
:103f10000200000000000000f21c0000160000007b
:103f200000000000201d000006000000000000004e
:103f3000341d00000200000002000000000000002c
:103f40002a1d000004000000000000000000000026
:020000040000fa
:103f50000000fa002143a800c1cfb300014078005f
:103f60002163b60020c3bf007f4060000064a00052
:103f700020e3b7002043a8002343a80001407800b5
:103f80002363b60030ccb3002263b60025e3a9005a
:103f9000f0c3b30024e3b70030a3a8002ca3ef00c4
:103fa0002ca3a90085a0a900aac0bf000044a100bd
:103fb0000046b300aae0b70095a0a80021e3a8003e
:103fc0000080fa00000006000000fa000a21ef005d
:103fd000703821007008880013e1a8000080fa0002
:103fe00000000600809fbe00829fbe000000fa0015
:103ff00092e980008200410020cf21000318800058
:10400000833078000201e80092e9880000188000ff
:104010006300b9004c00de0030e88800ea0f510070
:1040200001003a00323def0085a0a9000080fa00af
:104030004f01be004f00be00004006000000fa0025
:104040006ac0a9006ae0a900c822ef000080eb0066
:104050005016880080e988000080fa000000060001
:104060000000fa00881f7800120020000014dd0014
:104070000100e0000700320083fe0700080078001e
:10408000301db70080e988005016880083fe0700c5
:10409000090037007cfe0700080078000080ea0075
:1040a0008180ea0082e980000001610082e98800e5
:1040b0005216880079fe07004f0478000080fa004d
:1040c000000006000000fa00881f780011002000a0
:1040d000000cdd006cfe070082e980000200640035
:1040e00007003200080078000080ea008180ea00c2
:1040f0000000610080e98800501688000300370046
:104100000200740080e988005016880063fe0700f2
:104110004f0478000080fa00000006000000fa005a
:104120008000eb0081088800f108880031088800d1
:10413000a10888006101b80000a025002126200008
:1041400066f20700600888001aa1ef00a7c0bf0050
:10415000f1c8b300014060000054a000a7e0b70020
:1041600084e0a90094e0a80011e1a8001fe1a800e4
:104170000080fa0000000600809fbe00821f7800c9
:104180003400f80000002000a00188000000fa00c0
:10419000a208800050e98000e40f500007003600bc
:1041a00060e9800080005100a0e98000808f50000d
:1041b00004003600a1e98800020037000000e80092
:1041c00050e9880062e9880084e0a9000080fa00d4
:1041d0003400f9004f0178004f00be000040060097
:1041e0000000fa00881f7800000478000008a3008f
:1041f000020032000000a1000084e800f8f207008d
:104200008242800082004400f03f2100808f5000f5
:1042100006003e00810f510004003100208520007f
:104220000004410081428800010037000004eb00d7
:10423000f7f30700080078004f0478000080fa00c8
:10424000000006000000fa000080fa0000000600ee
:104250000000fa005028ef000080fa00000006007d
:104260000000fa000040210081428000010050005f
:104270000080fa00000006000000fa00f0c0b30061
:10428000c061b600c0cfb300c061b600c0c0b3000b
:10429000c061b700c3e1a90000002800c221b60038
:1042a000a0732000d00e8800400d2300200e88004f
:1042b000c941a800c8c1a900c841a800ca01a800f6
:1042c000f0c3b300cc61b600cd61b600ccc1bf0075
:1042d00001ccb30001406000a040b300cce1b700c6
:1042e000cdc1bf00014060004041b300cde1b70047
:1042f000cea1a900ce81a800c1e1a8000080fa00eb
:0443000000000600b3
:020000040000fa
:044304000000fe00b7
:00000001FF
